{"abi":[{"type":"constructor","inputs":[{"name":"_name","type":"string","internalType":"string"},{"name":"_symbol","type":"string","internalType":"string"},{"name":"_lockTime","type":"uint256","internalType":"uint256"},{"name":"_initialOwner","type":"address","internalType":"address"},{"name":"_initialSupply","type":"uint256","internalType":"uint256"}],"stateMutability":"nonpayable"},{"type":"function","name":"allowance","inputs":[{"name":"","type":"address","internalType":"address"},{"name":"","type":"address","internalType":"address"}],"outputs":[{"name":"","type":"uint256","internalType":"uint256"}],"stateMutability":"view"},{"type":"function","name":"approve","inputs":[{"name":"spender","type":"address","internalType":"address"},{"name":"value","type":"uint256","internalType":"uint256"}],"outputs":[{"name":"","type":"bool","internalType":"bool"}],"stateMutability":"payable"},{"type":"function","name":"balanceOf","inputs":[{"name":"","type":"address","internalType":"address"}],"outputs":[{"name":"","type":"uint256","internalType":"uint256"}],"stateMutability":"view"},{"type":"function","name":"burn","inputs":[{"name":"from","type":"address","internalType":"address"},{"name":"value","type":"uint256","internalType":"uint256"}],"outputs":[],"stateMutability":"nonpayable"},{"type":"function","name":"decimals","inputs":[],"outputs":[{"name":"","type":"uint8","internalType":"uint8"}],"stateMutability":"view"},{"type":"function","name":"mint","inputs":[{"name":"to","type":"address","internalType":"address"},{"name":"value","type":"uint256","internalType":"uint256"}],"outputs":[],"stateMutability":"nonpayable"},{"type":"function","name":"name","inputs":[],"outputs":[{"name":"","type":"string","internalType":"string"}],"stateMutability":"view"},{"type":"function","name":"owner","inputs":[],"outputs":[{"name":"","type":"address","internalType":"address"}],"stateMutability":"view"},{"type":"function","name":"symbol","inputs":[],"outputs":[{"name":"","type":"string","internalType":"string"}],"stateMutability":"view"},{"type":"function","name":"totalSupply","inputs":[],"outputs":[{"name":"","type":"uint256","internalType":"uint256"}],"stateMutability":"view"},{"type":"function","name":"transfer","inputs":[{"name":"to","type":"address","internalType":"address"},{"name":"value","type":"uint256","internalType":"uint256"}],"outputs":[{"name":"","type":"bool","internalType":"bool"}],"stateMutability":"nonpayable"},{"type":"function","name":"transferFrom","inputs":[{"name":"from","type":"address","internalType":"address"},{"name":"to","type":"address","internalType":"address"},{"name":"value","type":"uint256","internalType":"uint256"}],"outputs":[{"name":"","type":"bool","internalType":"bool"}],"stateMutability":"nonpayable"},{"type":"function","name":"unlockTime","inputs":[],"outputs":[{"name":"","type":"uint256","internalType":"uint256"}],"stateMutability":"view"},{"type":"event","name":"Approval","inputs":[{"name":"owner","type":"address","indexed":true,"internalType":"address"},{"name":"spender","type":"address","indexed":true,"internalType":"address"},{"name":"value","type":"uint256","indexed":false,"internalType":"uint256"}],"anonymous":false},{"type":"event","name":"Transfer","inputs":[{"name":"from","type":"address","indexed":true,"internalType":"address"},{"name":"to","type":"address","indexed":true,"internalType":"address"},{"name":"value","type":"uint256","indexed":false,"internalType":"uint256"}],"anonymous":false}],"bytecode":{"object":"0x60a060405234801561000f575f5ffd5b50604051611ae9380380611ae98339818101604052810190610031919061037f565b84846012825f90816100439190610635565b5081600190816100539190610635565b508060ff1660808160ff16815250505050503360055f6101000a81548173ffffffffffffffffffffffffffffffffffffffff021916908373ffffffffffffffffffffffffffffffffffffffff16021790555082426100b19190610731565b6006819055506100c782826100d160201b60201c565b505050505061078c565b8060035f8473ffffffffffffffffffffffffffffffffffffffff1673ffffffffffffffffffffffffffffffffffffffff1681526020019081526020015f205f82825461011d9190610731565b925050819055508060025f8282546101359190610731565b925050819055508173ffffffffffffffffffffffffffffffffffffffff165f73ffffffffffffffffffffffffffffffffffffffff167fddf252ad1be2c89b69c2b068fc378daa952ba7f163c4a11628f55a4df523b3ef836040516101999190610773565b60405180910390a35050565b5f604051905090565b5f5ffd5b5f5ffd5b5f5ffd5b5f5ffd5b5f601f19601f8301169050919050565b7f4e487b71000000000000000000000000000000000000000000000000000000005f52604160045260245ffd5b610204826101be565b810181811067ffffffffffffffff82111715610223576102226101ce565b5b80604052505050565b5f6102356101a5565b905061024182826101fb565b919050565b5f67ffffffffffffffff8211156102605761025f6101ce565b5b610269826101be565b9050602081019050919050565b8281835e5f83830152505050565b5f61029661029184610246565b61022c565b9050828152602081018484840111156102b2576102b16101ba565b5b6102bd848285610276565b509392505050565b5f82601f8301126102d9576102d86101b6565b5b81516102e9848260208601610284565b91505092915050565b5f819050919050565b610304816102f2565b811461030e575f5ffd5b50565b5f8151905061031f816102fb565b92915050565b5f73ffffffffffffffffffffffffffffffffffffffff82169050919050565b5f61034e82610325565b9050919050565b61035e81610344565b8114610368575f5ffd5b50565b5f8151905061037981610355565b92915050565b5f5f5f5f5f60a08688031215610398576103976101ae565b5b5f86015167ffffffffffffffff8111156103b5576103b46101b2565b5b6103c1888289016102c5565b955050602086015167ffffffffffffffff8111156103e2576103e16101b2565b5b6103ee888289016102c5565b94505060406103ff88828901610311565b93505060606104108882890161036b565b925050608061042188828901610311565b9150509295509295909350565b5f81519050919050565b7f4e487b71000000000000000000000000000000000000000000000000000000005f52602260045260245ffd5b5f600282049050600182168061047c57607f821691505b60208210810361048f5761048e610438565b5b50919050565b5f819050815f5260205f209050919050565b5f6020601f8301049050919050565b5f82821b905092915050565b5f600883026104f17fffffffffffffffffffffffffffffffffffffffffffffffffffffffffffffffff826104b6565b6104fb86836104b6565b95508019841693508086168417925050509392505050565b5f819050919050565b5f61053661053161052c846102f2565b610513565b6102f2565b9050919050565b5f819050919050565b61054f8361051c565b61056361055b8261053d565b8484546104c2565b825550505050565b5f5f905090565b61057a61056b565b610585818484610546565b505050565b5b818110156105a85761059d5f82610572565b60018101905061058b565b5050565b601f8211156105ed576105be81610495565b6105c7846104a7565b810160208510156105d6578190505b6105ea6105e2856104a7565b83018261058a565b50505b505050565b5f82821c905092915050565b5f61060d5f19846008026105f2565b1980831691505092915050565b5f61062583836105fe565b9150826002028217905092915050565b61063e8261042e565b67ffffffffffffffff811115610657576106566101ce565b5b6106618254610465565b61066c8282856105ac565b5f60209050601f83116001811461069d575f841561068b578287015190505b610695858261061a565b8655506106fc565b601f1984166106ab86610495565b5f5b828110156106d2578489015182556001820191506020850194506020810190506106ad565b868310156106ef57848901516106eb601f8916826105fe565b8355505b6001600288020188555050505b505050505050565b7f4e487b71000000000000000000000000000000000000000000000000000000005f52601160045260245ffd5b5f61073b826102f2565b9150610746836102f2565b925082820190508082111561075e5761075d610704565b5b92915050565b61076d816102f2565b82525050565b5f6020820190506107865f830184610764565b92915050565b6080516113456107a45f395f61070301526113455ff3fe6080604052600436106100c1575f3560e01c806340c10f191161007e57806395d89b411161005857806395d89b41146102675780639dc29fac14610291578063a9059cbb146102b9578063dd62ed3e146102f5576100c1565b806340c10f19146101d957806370a08231146102015780638da5cb5b1461023d576100c1565b806306fdde03146100c5578063095ea7b3146100ef57806318160ddd1461011f57806323b872dd14610149578063251c1aa314610185578063313ce567146101af575b5f5ffd5b3480156100d0575f5ffd5b506100d9610331565b6040516100e69190610d92565b60405180910390f35b61010960048036038101906101049190610e43565b6103bc565b6040516101169190610e9b565b60405180910390f35b34801561012a575f5ffd5b506101336104ba565b6040516101409190610ec3565b60405180910390f35b348015610154575f5ffd5b5061016f600480360381019061016a9190610edc565b6104c0565b60405161017c9190610e9b565b60405180910390f35b348015610190575f5ffd5b506101996106fb565b6040516101a69190610ec3565b60405180910390f35b3480156101ba575f5ffd5b506101c3610701565b6040516101d09190610f47565b60405180910390f35b3480156101e4575f5ffd5b506101ff60048036038101906101fa9190610e43565b610725565b005b34801561020c575f5ffd5b5061022760048036038101906102229190610f60565b610807565b6040516102349190610ec3565b60405180910390f35b348015610248575f5ffd5b5061025161081c565b60405161025e9190610f9a565b60405180910390f35b348015610272575f5ffd5b5061027b610841565b6040516102889190610d92565b60405180910390f35b34801561029c575f5ffd5b506102b760048036038101906102b29190610e43565b6108cd565b005b3480156102c4575f5ffd5b506102df60048036038101906102da9190610e43565b6109af565b6040516102ec9190610e9b565b60405180910390f35b348015610300575f5ffd5b5061031b60048036038101906103169190610fb3565b6109c3565b6040516103289190610ec3565b60405180910390f35b5f805461033d9061101e565b80601f01602080910402602001604051908101604052809291908181526020018280546103699061101e565b80156103b45780601f1061038b576101008083540402835291602001916103b4565b820191905f5260205f20905b81548152906001019060200180831161039757829003601f168201915b505050505081565b5f8160045f3373ffffffffffffffffffffffffffffffffffffffff1673ffffffffffffffffffffffffffffffffffffffff1681526020019081526020015f205f8573ffffffffffffffffffffffffffffffffffffffff1673ffffffffffffffffffffffffffffffffffffffff1681526020019081526020015f205f828254610444919061107b565b925050819055508273ffffffffffffffffffffffffffffffffffffffff163373ffffffffffffffffffffffffffffffffffffffff167f8c5be1e5ebec7d5bd14f71427d1e84f3dd0314c0f7b2291e5b200ac8c7c3b925846040516104a89190610ec3565b60405180910390a36001905092915050565b60025481565b5f8160045f8673ffffffffffffffffffffffffffffffffffffffff1673ffffffffffffffffffffffffffffffffffffffff1681526020019081526020015f205f3373ffffffffffffffffffffffffffffffffffffffff1673ffffffffffffffffffffffffffffffffffffffff1681526020019081526020015f2054101561057c576040517f08c379a0000000000000000000000000000000000000000000000000000000008152600401610573906110f8565b60405180910390fd5b8160045f8673ffffffffffffffffffffffffffffffffffffffff1673ffffffffffffffffffffffffffffffffffffffff1681526020019081526020015f205f3373ffffffffffffffffffffffffffffffffffffffff1673ffffffffffffffffffffffffffffffffffffffff1681526020019081526020015f205f8282546106039190611116565b925050819055503373ffffffffffffffffffffffffffffffffffffffff168473ffffffffffffffffffffffffffffffffffffffff167f8c5be1e5ebec7d5bd14f71427d1e84f3dd0314c0f7b2291e5b200ac8c7c3b92560045f8873ffffffffffffffffffffffffffffffffffffffff1673ffffffffffffffffffffffffffffffffffffffff1681526020019081526020015f205f3373ffffffffffffffffffffffffffffffffffffffff1673ffffffffffffffffffffffffffffffffffffffff1681526020019081526020015f20546040516106df9190610ec3565b60405180910390a36106f28484846109e3565b90509392505050565b60065481565b7f000000000000000000000000000000000000000000000000000000000000000081565b60065442101561076a576040517f08c379a000000000000000000000000000000000000000000000000000000000815260040161076190611193565b60405180910390fd5b60055f9054906101000a900473ffffffffffffffffffffffffffffffffffffffff1673ffffffffffffffffffffffffffffffffffffffff163373ffffffffffffffffffffffffffffffffffffffff16146107f9576040517f08c379a00000000000000000000000000000000000000000000000000000000081526004016107f0906111fb565b60405180910390fd5b6108038282610b7a565b5050565b6003602052805f5260405f205f915090505481565b60055f9054906101000a900473ffffffffffffffffffffffffffffffffffffffff1681565b6001805461084e9061101e565b80601f016020809104026020016040519081016040528092919081815260200182805461087a9061101e565b80156108c55780601f1061089c576101008083540402835291602001916108c5565b820191905f5260205f20905b8154815290600101906020018083116108a857829003601f168201915b505050505081565b600654421015610912576040517f08c379a000000000000000000000000000000000000000000000000000000000815260040161090990611193565b60405180910390fd5b60055f9054906101000a900473ffffffffffffffffffffffffffffffffffffffff1673ffffffffffffffffffffffffffffffffffffffff163373ffffffffffffffffffffffffffffffffffffffff16146109a1576040517f08c379a000000000000000000000000000000000000000000000000000000000815260040161099890611263565b60405180910390fd5b6109ab8282610c4e565b5050565b5f6109bb3384846109e3565b905092915050565b6004602052815f5260405f20602052805f5260405f205f91509150505481565b5f8160035f8673ffffffffffffffffffffffffffffffffffffffff1673ffffffffffffffffffffffffffffffffffffffff1681526020019081526020015f20541015610a64576040517f08c379a0000000000000000000000000000000000000000000000000000000008152600401610a5b906112f1565b60405180910390fd5b8273ffffffffffffffffffffffffffffffffffffffff168473ffffffffffffffffffffffffffffffffffffffff167fddf252ad1be2c89b69c2b068fc378daa952ba7f163c4a11628f55a4df523b3ef84604051610ac19190610ec3565b60405180910390a38160035f8673ffffffffffffffffffffffffffffffffffffffff1673ffffffffffffffffffffffffffffffffffffffff1681526020019081526020015f205f828254610b159190611116565b925050819055508160035f8573ffffffffffffffffffffffffffffffffffffffff1673ffffffffffffffffffffffffffffffffffffffff1681526020019081526020015f205f828254610b68919061107b565b92505081905550600190509392505050565b8060035f8473ffffffffffffffffffffffffffffffffffffffff1673ffffffffffffffffffffffffffffffffffffffff1681526020019081526020015f205f828254610bc6919061107b565b925050819055508060025f828254610bde919061107b565b925050819055508173ffffffffffffffffffffffffffffffffffffffff165f73ffffffffffffffffffffffffffffffffffffffff167fddf252ad1be2c89b69c2b068fc378daa952ba7f163c4a11628f55a4df523b3ef83604051610c429190610ec3565b60405180910390a35050565b8060035f8473ffffffffffffffffffffffffffffffffffffffff1673ffffffffffffffffffffffffffffffffffffffff1681526020019081526020015f205f828254610c9a9190611116565b925050819055508060025f828254610cb29190611116565b925050819055505f73ffffffffffffffffffffffffffffffffffffffff168273ffffffffffffffffffffffffffffffffffffffff167fddf252ad1be2c89b69c2b068fc378daa952ba7f163c4a11628f55a4df523b3ef83604051610d169190610ec3565b60405180910390a35050565b5f81519050919050565b5f82825260208201905092915050565b8281835e5f83830152505050565b5f601f19601f8301169050919050565b5f610d6482610d22565b610d6e8185610d2c565b9350610d7e818560208601610d3c565b610d8781610d4a565b840191505092915050565b5f6020820190508181035f830152610daa8184610d5a565b905092915050565b5f5ffd5b5f73ffffffffffffffffffffffffffffffffffffffff82169050919050565b5f610ddf82610db6565b9050919050565b610def81610dd5565b8114610df9575f5ffd5b50565b5f81359050610e0a81610de6565b92915050565b5f819050919050565b610e2281610e10565b8114610e2c575f5ffd5b50565b5f81359050610e3d81610e19565b92915050565b5f5f60408385031215610e5957610e58610db2565b5b5f610e6685828601610dfc565b9250506020610e7785828601610e2f565b9150509250929050565b5f8115159050919050565b610e9581610e81565b82525050565b5f602082019050610eae5f830184610e8c565b92915050565b610ebd81610e10565b82525050565b5f602082019050610ed65f830184610eb4565b92915050565b5f5f5f60608486031215610ef357610ef2610db2565b5b5f610f0086828701610dfc565b9350506020610f1186828701610dfc565b9250506040610f2286828701610e2f565b9150509250925092565b5f60ff82169050919050565b610f4181610f2c565b82525050565b5f602082019050610f5a5f830184610f38565b92915050565b5f60208284031215610f7557610f74610db2565b5b5f610f8284828501610dfc565b91505092915050565b610f9481610dd5565b82525050565b5f602082019050610fad5f830184610f8b565b92915050565b5f5f60408385031215610fc957610fc8610db2565b5b5f610fd685828601610dfc565b9250506020610fe785828601610dfc565b9150509250929050565b7f4e487b71000000000000000000000000000000000000000000000000000000005f52602260045260245ffd5b5f600282049050600182168061103557607f821691505b60208210810361104857611047610ff1565b5b50919050565b7f4e487b71000000000000000000000000000000000000000000000000000000005f52601160045260245ffd5b5f61108582610e10565b915061109083610e10565b92508282019050808211156110a8576110a761104e565b5b92915050565b7f45524332303a20496e73756666696369656e7420616c6c6f77616e63650000005f82015250565b5f6110e2601d83610d2c565b91506110ed826110ae565b602082019050919050565b5f6020820190508181035f83015261110f816110d6565b9050919050565b5f61112082610e10565b915061112b83610e10565b92508282039050818111156111435761114261104e565b5b92915050565b7f4450433a205374696c6c206c6f636b65640000000000000000000000000000005f82015250565b5f61117d601183610d2c565b915061118882611149565b602082019050919050565b5f6020820190508181035f8301526111aa81611171565b9050919050565b7f4450433a204f6e6c79206f776e65722063616e206d696e7400000000000000005f82015250565b5f6111e5601883610d2c565b91506111f0826111b1565b602082019050919050565b5f6020820190508181035f830152611212816111d9565b9050919050565b7f4450433a204f6e6c79206f776e65722063616e206275726e00000000000000005f82015250565b5f61124d601883610d2c565b915061125882611219565b602082019050919050565b5f6020820190508181035f83015261127a81611241565b9050919050565b7f45524332303a20496e73756666696369656e742073656e6465722062616c616e5f8201527f6365000000000000000000000000000000000000000000000000000000000000602082015250565b5f6112db602283610d2c565b91506112e682611281565b604082019050919050565b5f6020820190508181035f830152611308816112cf565b905091905056fea264697066735822122024463061fb81dd9d372725ea96eaa405d6c0e674872f901e256f91f0776918e164736f6c634300081c0033","linkReferences":{}},"methodIdentifiers":{"allowance(address,address)":"dd62ed3e","approve(address,uint256)":"095ea7b3","balanceOf(address)":"70a08231","burn(address,uint256)":"9dc29fac","decimals()":"313ce567","mint(address,uint256)":"40c10f19","name()":"06fdde03","owner()":"8da5cb5b","symbol()":"95d89b41","totalSupply()":"18160ddd","transfer(address,uint256)":"a9059cbb","transferFrom(address,address,uint256)":"23b872dd","unlockTime()":"251c1aa3"},"id":0}