{"abi":[{"type":"constructor","inputs":[{"name":"_name","type":"string","internalType":"string"},{"name":"_symbol","type":"string","internalType":"string"},{"name":"_oracle","type":"address","internalType":"contract Oracle"},{"name":"_feeRatePercentage","type":"uint256","internalType":"uint256"},{"name":"_initialCollateralRatioPercentage","type":"uint256","internalType":"uint256"},{"name":"_depositorCoinLockTime","type":"uint256","internalType":"uint256"}],"stateMutability":"nonpayable"},{"type":"function","name":"allowance","inputs":[{"name":"","type":"address","internalType":"address"},{"name":"","type":"address","internalType":"address"}],"outputs":[{"name":"","type":"uint256","internalType":"uint256"}],"stateMutability":"view"},{"type":"function","name":"approve","inputs":[{"name":"spender","type":"address","internalType":"address"},{"name":"value","type":"uint256","internalType":"uint256"}],"outputs":[{"name":"","type":"bool","internalType":"bool"}],"stateMutability":"payable"},{"type":"function","name":"balanceOf","inputs":[{"name":"","type":"address","internalType":"address"}],"outputs":[{"name":"","type":"uint256","internalType":"uint256"}],"stateMutability":"view"},{"type":"function","name":"burn","inputs":[{"name":"burnStablecoinAmount","type":"uint256","internalType":"uint256"}],"outputs":[],"stateMutability":"nonpayable"},{"type":"function","name":"decimals","inputs":[],"outputs":[{"name":"","type":"uint8","internalType":"uint8"}],"stateMutability":"view"},{"type":"function","name":"depositCollateralBuffer","inputs":[],"outputs":[],"stateMutability":"payable"},{"type":"function","name":"depositorCoin","inputs":[],"outputs":[{"name":"","type":"address","internalType":"contract DepositorCoin"}],"stateMutability":"view"},{"type":"function","name":"depositorCoinLockTime","inputs":[],"outputs":[{"name":"","type":"uint256","internalType":"uint256"}],"stateMutability":"view"},{"type":"function","name":"feeRatePercentage","inputs":[],"outputs":[{"name":"","type":"uint256","internalType":"uint256"}],"stateMutability":"view"},{"type":"function","name":"initialCollateralRatioPercentage","inputs":[],"outputs":[{"name":"","type":"uint256","internalType":"uint256"}],"stateMutability":"view"},{"type":"function","name":"mint","inputs":[],"outputs":[],"stateMutability":"payable"},{"type":"function","name":"name","inputs":[],"outputs":[{"name":"","type":"string","internalType":"string"}],"stateMutability":"view"},{"type":"function","name":"oracle","inputs":[],"outputs":[{"name":"","type":"address","internalType":"contract Oracle"}],"stateMutability":"view"},{"type":"function","name":"symbol","inputs":[],"outputs":[{"name":"","type":"string","internalType":"string"}],"stateMutability":"view"},{"type":"function","name":"totalSupply","inputs":[],"outputs":[{"name":"","type":"uint256","internalType":"uint256"}],"stateMutability":"view"},{"type":"function","name":"transfer","inputs":[{"name":"to","type":"address","internalType":"address"},{"name":"value","type":"uint256","internalType":"uint256"}],"outputs":[{"name":"","type":"bool","internalType":"bool"}],"stateMutability":"nonpayable"},{"type":"function","name":"transferFrom","inputs":[{"name":"from","type":"address","internalType":"address"},{"name":"to","type":"address","internalType":"address"},{"name":"value","type":"uint256","internalType":"uint256"}],"outputs":[{"name":"","type":"bool","internalType":"bool"}],"stateMutability":"nonpayable"},{"type":"function","name":"withdrawCollateralBuffer","inputs":[{"name":"burnDepositorCoinAmount","type":"uint256","internalType":"uint256"}],"outputs":[],"stateMutability":"nonpayable"},{"type":"event","name":"Approval","inputs":[{"name":"owner","type":"address","indexed":true,"internalType":"address"},{"name":"spender","type":"address","indexed":true,"internalType":"address"},{"name":"value","type":"uint256","indexed":false,"internalType":"uint256"}],"anonymous":false},{"type":"event","name":"Transfer","inputs":[{"name":"from","type":"address","indexed":true,"internalType":"address"},{"name":"to","type":"address","indexed":true,"internalType":"address"},{"name":"value","type":"uint256","indexed":false,"internalType":"uint256"}],"anonymous":false},{"type":"error","name":"InitialCollateralRatioError","inputs":[{"name":"message","type":"string","internalType":"string"},{"name":"minimumDepositAmount","type":"uint256","internalType":"uint256"}]}],"bytecode":{"object":"0x60a060405234801561000f575f5ffd5b50604051614490380380614490833981810160405281019061003191906102b0565b85856012825f90816100439190610578565b5081600190816100539190610578565b508060ff1660808160ff16815250505050508360065f6101000a81548173ffffffffffffffffffffffffffffffffffffffff021916908373ffffffffffffffffffffffffffffffffffffffff160217905550826007819055508160088190555080600981905550505050505050610647565b5f604051905090565b5f5ffd5b5f5ffd5b5f5ffd5b5f5ffd5b5f601f19601f8301169050919050565b7f4e487b71000000000000000000000000000000000000000000000000000000005f52604160045260245ffd5b610124826100de565b810181811067ffffffffffffffff82111715610143576101426100ee565b5b80604052505050565b5f6101556100c5565b9050610161828261011b565b919050565b5f67ffffffffffffffff8211156101805761017f6100ee565b5b610189826100de565b9050602081019050919050565b8281835e5f83830152505050565b5f6101b66101b184610166565b61014c565b9050828152602081018484840111156101d2576101d16100da565b5b6101dd848285610196565b509392505050565b5f82601f8301126101f9576101f86100d6565b5b81516102098482602086016101a4565b91505092915050565b5f73ffffffffffffffffffffffffffffffffffffffff82169050919050565b5f61023b82610212565b9050919050565b5f61024c82610231565b9050919050565b61025c81610242565b8114610266575f5ffd5b50565b5f8151905061027781610253565b92915050565b5f819050919050565b61028f8161027d565b8114610299575f5ffd5b50565b5f815190506102aa81610286565b92915050565b5f5f5f5f5f5f60c087890312156102ca576102c96100ce565b5b5f87015167ffffffffffffffff8111156102e7576102e66100d2565b5b6102f389828a016101e5565b965050602087015167ffffffffffffffff811115610314576103136100d2565b5b61032089828a016101e5565b955050604061033189828a01610269565b945050606061034289828a0161029c565b935050608061035389828a0161029c565b92505060a061036489828a0161029c565b9150509295509295509295565b5f81519050919050565b7f4e487b71000000000000000000000000000000000000000000000000000000005f52602260045260245ffd5b5f60028204905060018216806103bf57607f821691505b6020821081036103d2576103d161037b565b5b50919050565b5f819050815f5260205f209050919050565b5f6020601f8301049050919050565b5f82821b905092915050565b5f600883026104347fffffffffffffffffffffffffffffffffffffffffffffffffffffffffffffffff826103f9565b61043e86836103f9565b95508019841693508086168417925050509392505050565b5f819050919050565b5f61047961047461046f8461027d565b610456565b61027d565b9050919050565b5f819050919050565b6104928361045f565b6104a661049e82610480565b848454610405565b825550505050565b5f5f905090565b6104bd6104ae565b6104c8818484610489565b505050565b5b818110156104eb576104e05f826104b5565b6001810190506104ce565b5050565b601f82111561053057610501816103d8565b61050a846103ea565b81016020851015610519578190505b61052d610525856103ea565b8301826104cd565b50505b505050565b5f82821c905092915050565b5f6105505f1984600802610535565b1980831691505092915050565b5f6105688383610541565b9150826002028217905092915050565b61058182610371565b67ffffffffffffffff81111561059a576105996100ee565b5b6105a482546103a8565b6105af8282856104ef565b5f60209050601f8311600181146105e0575f84156105ce578287015190505b6105d8858261055d565b86555061063f565b601f1984166105ee866103d8565b5f5b82811015610615578489015182556001820191506020850194506020810190506105f0565b86831015610632578489015161062e601f891682610541565b8355505b6001600288020188555050505b505050505050565b608051613e3161065f5f395f6108d90152613e315ff3fe608060405260043610610108575f3560e01c806378e037ba116100945780639ed74418116100635780639ed7441814610316578063a9059cbb14610340578063c6fbba3f1461037c578063cf1137ff146103a4578063dd62ed3e146103ce57610108565b806378e037ba1461026e5780637dc0d1d01461029857806383a2838c146102c257806395d89b41146102ec57610108565b806323b872dd116100db57806323b872dd1461019a578063313ce567146101d657806337707fb81461020057806342966c681461020a57806370a082311461023257610108565b806306fdde031461010c578063095ea7b3146101365780631249c58b1461016657806318160ddd14610170575b5f5ffd5b348015610117575f5ffd5b5061012061040a565b60405161012d919061186d565b60405180910390f35b610150600480360381019061014b919061191e565b610495565b60405161015d9190611976565b60405180910390f35b61016e610593565b005b34801561017b575f5ffd5b50610184610696565b604051610191919061199e565b60405180910390f35b3480156101a5575f5ffd5b506101c060048036038101906101bb91906119b7565b61069c565b6040516101cd9190611976565b60405180910390f35b3480156101e1575f5ffd5b506101ea6108d7565b6040516101f79190611a22565b60405180910390f35b6102086108fb565b005b348015610215575f5ffd5b50610230600480360381019061022b9190611a3b565b610de7565b005b34801561023d575f5ffd5b5061025860048036038101906102539190611a66565b610f52565b604051610265919061199e565b60405180910390f35b348015610279575f5ffd5b50610282610f67565b60405161028f9190611aec565b60405180910390f35b3480156102a3575f5ffd5b506102ac610f8c565b6040516102b99190611b25565b60405180910390f35b3480156102cd575f5ffd5b506102d6610fb1565b6040516102e3919061199e565b60405180910390f35b3480156102f7575f5ffd5b50610300610fb7565b60405161030d919061186d565b60405180910390f35b348015610321575f5ffd5b5061032a611043565b604051610337919061199e565b60405180910390f35b34801561034b575f5ffd5b506103666004803603810190610361919061191e565b611049565b6040516103739190611976565b60405180910390f35b348015610387575f5ffd5b506103a2600480360381019061039d9190611a3b565b61105d565b005b3480156103af575f5ffd5b506103b861132b565b6040516103c5919061199e565b60405180910390f35b3480156103d9575f5ffd5b506103f460048036038101906103ef9190611b3e565b611331565b604051610401919061199e565b60405180910390f35b5f805461041690611ba9565b80601f016020809104026020016040519081016040528092919081815260200182805461044290611ba9565b801561048d5780601f106104645761010080835404028352916020019161048d565b820191905f5260205f20905b81548152906001019060200180831161047057829003601f168201915b505050505081565b5f8160045f3373ffffffffffffffffffffffffffffffffffffffff1673ffffffffffffffffffffffffffffffffffffffff1681526020019081526020015f205f8573ffffffffffffffffffffffffffffffffffffffff1673ffffffffffffffffffffffffffffffffffffffff1681526020019081526020015f205f82825461051d9190611c06565b925050819055508273ffffffffffffffffffffffffffffffffffffffff163373ffffffffffffffffffffffffffffffffffffffff167f8c5be1e5ebec7d5bd14f71427d1e84f3dd0314c0f7b2291e5b200ac8c7c3b92584604051610581919061199e565b60405180910390a36001905092915050565b5f34116105d5576040517f08c379a00000000000000000000000000000000000000000000000000000000081526004016105cc90611c83565b60405180910390fd5b5f6105df34611351565b90505f60065f9054906101000a900473ffffffffffffffffffffffffffffffffffffffff1673ffffffffffffffffffffffffffffffffffffffff166398d5fdca6040518163ffffffff1660e01b8152600401602060405180830381865afa15801561064c573d5f5f3e3d5ffd5b505050506040513d601f19601f820116820180604052508101906106709190611cb5565b823461067c9190611ce0565b6106869190611d13565b90506106923382611373565b5050565b60025481565b5f8160045f8673ffffffffffffffffffffffffffffffffffffffff1673ffffffffffffffffffffffffffffffffffffffff1681526020019081526020015f205f3373ffffffffffffffffffffffffffffffffffffffff1673ffffffffffffffffffffffffffffffffffffffff1681526020019081526020015f20541015610758576040517f08c379a000000000000000000000000000000000000000000000000000000000815260040161074f90611d9e565b60405180910390fd5b8160045f8673ffffffffffffffffffffffffffffffffffffffff1673ffffffffffffffffffffffffffffffffffffffff1681526020019081526020015f205f3373ffffffffffffffffffffffffffffffffffffffff1673ffffffffffffffffffffffffffffffffffffffff1681526020019081526020015f205f8282546107df9190611ce0565b925050819055503373ffffffffffffffffffffffffffffffffffffffff168473ffffffffffffffffffffffffffffffffffffffff167f8c5be1e5ebec7d5bd14f71427d1e84f3dd0314c0f7b2291e5b200ac8c7c3b92560045f8873ffffffffffffffffffffffffffffffffffffffff1673ffffffffffffffffffffffffffffffffffffffff1681526020019081526020015f205f3373ffffffffffffffffffffffffffffffffffffffff1673ffffffffffffffffffffffffffffffffffffffff1681526020019081526020015f20546040516108bb919061199e565b60405180910390a36108ce848484611447565b90509392505050565b7f000000000000000000000000000000000000000000000000000000000000000081565b5f6109046115de565b90505f8113610c14575f7fffffffffffffffffffffffffffffffffffffffffffffffffffffffffffffffff8261093a9190611dc5565b90505f60065f9054906101000a900473ffffffffffffffffffffffffffffffffffffffff1673ffffffffffffffffffffffffffffffffffffffff166398d5fdca6040518163ffffffff1660e01b8152600401602060405180830381865afa1580156109a7573d5f5f3e3d5ffd5b505050506040513d601f19601f820116820180604052508101906109cb9190611cb5565b826109d69190611e68565b90505f81346109e59190611ce0565b90505f60646002546008546109fa9190611d13565b610a049190611e68565b90505f60065f9054906101000a900473ffffffffffffffffffffffffffffffffffffffff1673ffffffffffffffffffffffffffffffffffffffff166398d5fdca6040518163ffffffff1660e01b8152600401602060405180830381865afa158015610a71573d5f5f3e3d5ffd5b505050506040513d601f19601f82011682018060405250810190610a959190611cb5565b82610aa09190611e68565b905080831015610af6575f8185610ab79190611c06565b9050806040517f21bfe988000000000000000000000000000000000000000000000000000000008152600401610aed9190611f08565b60405180910390fd5b5f60065f9054906101000a900473ffffffffffffffffffffffffffffffffffffffff1673ffffffffffffffffffffffffffffffffffffffff166398d5fdca6040518163ffffffff1660e01b8152600401602060405180830381865afa158015610b61573d5f5f3e3d5ffd5b505050506040513d601f19601f82011682018060405250810190610b859190611cb5565b84610b909190611d13565b90506009543382604051610ba3906117f0565b610baf93929190611fd7565b604051809103905ff080158015610bc8573d5f5f3e3d5ffd5b5060055f6101000a81548173ffffffffffffffffffffffffffffffffffffffff021916908373ffffffffffffffffffffffffffffffffffffffff16021790555050505050505050610de5565b5f8190505f610cb060055f9054906101000a900473ffffffffffffffffffffffffffffffffffffffff1673ffffffffffffffffffffffffffffffffffffffff166318160ddd6040518163ffffffff1660e01b8152600401602060405180830381865afa158015610c86573d5f5f3e3d5ffd5b505050506040513d601f19601f82011682018060405250810190610caa9190611cb5565b836116a4565b90505f610d5560065f9054906101000a900473ffffffffffffffffffffffffffffffffffffffff1673ffffffffffffffffffffffffffffffffffffffff166398d5fdca6040518163ffffffff1660e01b8152600401602060405180830381865afa158015610d20573d5f5f3e3d5ffd5b505050506040513d601f19601f82011682018060405250810190610d449190611cb5565b34610d4f9190611d13565b836116cc565b905060055f9054906101000a900473ffffffffffffffffffffffffffffffffffffffff1673ffffffffffffffffffffffffffffffffffffffff166340c10f1933836040518363ffffffff1660e01b8152600401610db3929190612032565b5f604051808303815f87803b158015610dca575f5ffd5b505af1158015610ddc573d5f5f3e3d5ffd5b50505050505050505b565b610df133826116f4565b5f60065f9054906101000a900473ffffffffffffffffffffffffffffffffffffffff1673ffffffffffffffffffffffffffffffffffffffff166398d5fdca6040518163ffffffff1660e01b8152600401602060405180830381865afa158015610e5c573d5f5f3e3d5ffd5b505050506040513d601f19601f82011682018060405250810190610e809190611cb5565b82610e8b9190611e68565b90505f610e9782611351565b90505f3373ffffffffffffffffffffffffffffffffffffffff168284610ebd9190611ce0565b604051610ec990612086565b5f6040518083038185875af1925050503d805f8114610f03576040519150601f19603f3d011682016040523d82523d5f602084013e610f08565b606091505b5050905080610f4c576040517f08c379a0000000000000000000000000000000000000000000000000000000008152600401610f439061210a565b60405180910390fd5b50505050565b6003602052805f5260405f205f915090505481565b60055f9054906101000a900473ffffffffffffffffffffffffffffffffffffffff1681565b60065f9054906101000a900473ffffffffffffffffffffffffffffffffffffffff1681565b60085481565b60018054610fc490611ba9565b80601f0160208091040260200160405190810160405280929190818152602001828054610ff090611ba9565b801561103b5780601f106110125761010080835404028352916020019161103b565b820191905f5260205f20905b81548152906001019060200180831161101e57829003601f168201915b505050505081565b60095481565b5f611055338484611447565b905092915050565b5f6110666115de565b90505f81136110aa576040517f08c379a00000000000000000000000000000000000000000000000000000000081526004016110a190612198565b60405180910390fd5b5f8190505f61114660055f9054906101000a900473ffffffffffffffffffffffffffffffffffffffff1673ffffffffffffffffffffffffffffffffffffffff166318160ddd6040518163ffffffff1660e01b8152600401602060405180830381865afa15801561111c573d5f5f3e3d5ffd5b505050506040513d601f19601f820116820180604052508101906111409190611cb5565b836116a4565b905060055f9054906101000a900473ffffffffffffffffffffffffffffffffffffffff1673ffffffffffffffffffffffffffffffffffffffff16639dc29fac33866040518363ffffffff1660e01b81526004016111a4929190612032565b5f604051808303815f87803b1580156111bb575f5ffd5b505af11580156111cd573d5f5f3e3d5ffd5b505050505f6111dc85836117c8565b90505f60065f9054906101000a900473ffffffffffffffffffffffffffffffffffffffff1673ffffffffffffffffffffffffffffffffffffffff166398d5fdca6040518163ffffffff1660e01b8152600401602060405180830381865afa158015611249573d5f5f3e3d5ffd5b505050506040513d601f19601f8201168201806040525081019061126d9190611cb5565b826112789190611e68565b90505f3373ffffffffffffffffffffffffffffffffffffffff168260405161129f90612086565b5f6040518083038185875af1925050503d805f81146112d9576040519150601f19603f3d011682016040523d82523d5f602084013e6112de565b606091505b5050905080611322576040517f08c379a000000000000000000000000000000000000000000000000000000000815260040161131990612226565b60405180910390fd5b50505050505050565b60075481565b6004602052815f5260405f20602052805f5260405f205f91509150505481565b5f6064600754836113629190611d13565b61136c9190611e68565b9050919050565b8060035f8473ffffffffffffffffffffffffffffffffffffffff1673ffffffffffffffffffffffffffffffffffffffff1681526020019081526020015f205f8282546113bf9190611c06565b925050819055508060025f8282546113d79190611c06565b925050819055508173ffffffffffffffffffffffffffffffffffffffff165f73ffffffffffffffffffffffffffffffffffffffff167fddf252ad1be2c89b69c2b068fc378daa952ba7f163c4a11628f55a4df523b3ef8360405161143b919061199e565b60405180910390a35050565b5f8160035f8673ffffffffffffffffffffffffffffffffffffffff1673ffffffffffffffffffffffffffffffffffffffff1681526020019081526020015f205410156114c8576040517f08c379a00000000000000000000000000000000000000000000000000000000081526004016114bf906122b4565b60405180910390fd5b8273ffffffffffffffffffffffffffffffffffffffff168473ffffffffffffffffffffffffffffffffffffffff167fddf252ad1be2c89b69c2b068fc378daa952ba7f163c4a11628f55a4df523b3ef84604051611525919061199e565b60405180910390a38160035f8673ffffffffffffffffffffffffffffffffffffffff1673ffffffffffffffffffffffffffffffffffffffff1681526020019081526020015f205f8282546115799190611ce0565b925050819055508160035f8573ffffffffffffffffffffffffffffffffffffffff1673ffffffffffffffffffffffffffffffffffffffff1681526020019081526020015f205f8282546115cc9190611c06565b92505081905550600190509392505050565b5f5f60065f9054906101000a900473ffffffffffffffffffffffffffffffffffffffff1673ffffffffffffffffffffffffffffffffffffffff166398d5fdca6040518163ffffffff1660e01b8152600401602060405180830381865afa15801561164a573d5f5f3e3d5ffd5b505050506040513d601f19601f8201168201806040525081019061166e9190611cb5565b344761167a9190611ce0565b6116849190611d13565b90505f60025490505f818361169991906122d2565b905080935050505090565b5f81670de0b6b3a7640000846116ba9190611d13565b6116c49190611e68565b905092915050565b5f670de0b6b3a764000082846116e29190611d13565b6116ec9190611e68565b905092915050565b8060035f8473ffffffffffffffffffffffffffffffffffffffff1673ffffffffffffffffffffffffffffffffffffffff1681526020019081526020015f205f8282546117409190611ce0565b925050819055508060025f8282546117589190611ce0565b925050819055505f73ffffffffffffffffffffffffffffffffffffffff168273ffffffffffffffffffffffffffffffffffffffff167fddf252ad1be2c89b69c2b068fc378daa952ba7f163c4a11628f55a4df523b3ef836040516117bc919061199e565b60405180910390a35050565b5f81670de0b6b3a7640000846117de9190611d13565b6117e89190611e68565b905092915050565b611ae98061231383390190565b5f81519050919050565b5f82825260208201905092915050565b8281835e5f83830152505050565b5f601f19601f8301169050919050565b5f61183f826117fd565b6118498185611807565b9350611859818560208601611817565b61186281611825565b840191505092915050565b5f6020820190508181035f8301526118858184611835565b905092915050565b5f5ffd5b5f73ffffffffffffffffffffffffffffffffffffffff82169050919050565b5f6118ba82611891565b9050919050565b6118ca816118b0565b81146118d4575f5ffd5b50565b5f813590506118e5816118c1565b92915050565b5f819050919050565b6118fd816118eb565b8114611907575f5ffd5b50565b5f81359050611918816118f4565b92915050565b5f5f604083850312156119345761193361188d565b5b5f611941858286016118d7565b92505060206119528582860161190a565b9150509250929050565b5f8115159050919050565b6119708161195c565b82525050565b5f6020820190506119895f830184611967565b92915050565b611998816118eb565b82525050565b5f6020820190506119b15f83018461198f565b92915050565b5f5f5f606084860312156119ce576119cd61188d565b5b5f6119db868287016118d7565b93505060206119ec868287016118d7565b92505060406119fd8682870161190a565b9150509250925092565b5f60ff82169050919050565b611a1c81611a07565b82525050565b5f602082019050611a355f830184611a13565b92915050565b5f60208284031215611a5057611a4f61188d565b5b5f611a5d8482850161190a565b91505092915050565b5f60208284031215611a7b57611a7a61188d565b5b5f611a88848285016118d7565b91505092915050565b5f819050919050565b5f611ab4611aaf611aaa84611891565b611a91565b611891565b9050919050565b5f611ac582611a9a565b9050919050565b5f611ad682611abb565b9050919050565b611ae681611acc565b82525050565b5f602082019050611aff5f830184611add565b92915050565b5f611b0f82611abb565b9050919050565b611b1f81611b05565b82525050565b5f602082019050611b385f830184611b16565b92915050565b5f5f60408385031215611b5457611b5361188d565b5b5f611b61858286016118d7565b9250506020611b72858286016118d7565b9150509250929050565b7f4e487b71000000000000000000000000000000000000000000000000000000005f52602260045260245ffd5b5f6002820490506001821680611bc057607f821691505b602082108103611bd357611bd2611b7c565b5b50919050565b7f4e487b71000000000000000000000000000000000000000000000000000000005f52601160045260245ffd5b5f611c10826118eb565b9150611c1b836118eb565b9250828201905080821115611c3357611c32611bd9565b5b92915050565b7f5354433a204d7573742073656e642045544820746f206d696e740000000000005f82015250565b5f611c6d601a83611807565b9150611c7882611c39565b602082019050919050565b5f6020820190508181035f830152611c9a81611c61565b9050919050565b5f81519050611caf816118f4565b92915050565b5f60208284031215611cca57611cc961188d565b5b5f611cd784828501611ca1565b91505092915050565b5f611cea826118eb565b9150611cf5836118eb565b9250828203905081811115611d0d57611d0c611bd9565b5b92915050565b5f611d1d826118eb565b9150611d28836118eb565b9250828202611d36816118eb565b91508282048414831517611d4d57611d4c611bd9565b5b5092915050565b7f45524332303a20496e73756666696369656e7420616c6c6f77616e63650000005f82015250565b5f611d88601d83611807565b9150611d9382611d54565b602082019050919050565b5f6020820190508181035f830152611db581611d7c565b9050919050565b5f819050919050565b5f611dcf82611dbc565b9150611dda83611dbc565b9250828202611de881611dbc565b91507f800000000000000000000000000000000000000000000000000000000000000084145f84121615611e1f57611e1e611bd9565b5b8282058414831517611e3457611e33611bd9565b5b5092915050565b7f4e487b71000000000000000000000000000000000000000000000000000000005f52601260045260245ffd5b5f611e72826118eb565b9150611e7d836118eb565b925082611e8d57611e8c611e3b565b5b828204905092915050565b7f5354433a20496e697469616c20636f6c6c61746572616c20726174696f206e6f5f8201527f74206d65742c206d696e696d756d206973000000000000000000000000000000602082015250565b5f611ef2603183611807565b9150611efd82611e98565b604082019050919050565b5f6040820190508181035f830152611f1f81611ee6565b9050611f2e602083018461198f565b92915050565b7f4465706f7369746f7220436f696e0000000000000000000000000000000000005f82015250565b5f611f68600e83611807565b9150611f7382611f34565b602082019050919050565b7f44504300000000000000000000000000000000000000000000000000000000005f82015250565b5f611fb2600383611807565b9150611fbd82611f7e565b602082019050919050565b611fd1816118b0565b82525050565b5f60a0820190508181035f830152611fee81611f5c565b9050818103602083015261200181611fa6565b9050612010604083018661198f565b61201d6060830185611fc8565b61202a608083018461198f565b949350505050565b5f6040820190506120455f830185611fc8565b612052602083018461198f565b9392505050565b5f81905092915050565b50565b5f6120715f83612059565b915061207c82612063565b5f82019050919050565b5f61209082612066565b9150819050919050565b7f5354433a204275726e20726566756e64207472616e73616374696f6e206661695f8201527f6c65640000000000000000000000000000000000000000000000000000000000602082015250565b5f6120f4602383611807565b91506120ff8261209a565b604082019050919050565b5f6020820190508181035f830152612121816120e8565b9050919050565b7f5354433a204e6f206465706f7369746f722066756e647320746f2077697468645f8201527f7261770000000000000000000000000000000000000000000000000000000000602082015250565b5f612182602383611807565b915061218d82612128565b604082019050919050565b5f6020820190508181035f8301526121af81612176565b9050919050565b7f5354433a20576974686472617720636f6c6c61746572616c20627566666572205f8201527f7472616e73616374696f6e206661696c65640000000000000000000000000000602082015250565b5f612210603283611807565b915061221b826121b6565b604082019050919050565b5f6020820190508181035f83015261223d81612204565b9050919050565b7f45524332303a20496e73756666696369656e742073656e6465722062616c616e5f8201527f6365000000000000000000000000000000000000000000000000000000000000602082015250565b5f61229e602283611807565b91506122a982612244565b604082019050919050565b5f6020820190508181035f8301526122cb81612292565b9050919050565b5f6122dc82611dbc565b91506122e783611dbc565b925082820390508181125f8412168282135f85121516171561230c5761230b611bd9565b5b9291505056fe60a060405234801561000f575f5ffd5b50604051611ae9380380611ae98339818101604052810190610031919061037f565b84846012825f90816100439190610635565b5081600190816100539190610635565b508060ff1660808160ff16815250505050503360055f6101000a81548173ffffffffffffffffffffffffffffffffffffffff021916908373ffffffffffffffffffffffffffffffffffffffff16021790555082426100b19190610731565b6006819055506100c782826100d160201b60201c565b505050505061078c565b8060035f8473ffffffffffffffffffffffffffffffffffffffff1673ffffffffffffffffffffffffffffffffffffffff1681526020019081526020015f205f82825461011d9190610731565b925050819055508060025f8282546101359190610731565b925050819055508173ffffffffffffffffffffffffffffffffffffffff165f73ffffffffffffffffffffffffffffffffffffffff167fddf252ad1be2c89b69c2b068fc378daa952ba7f163c4a11628f55a4df523b3ef836040516101999190610773565b60405180910390a35050565b5f604051905090565b5f5ffd5b5f5ffd5b5f5ffd5b5f5ffd5b5f601f19601f8301169050919050565b7f4e487b71000000000000000000000000000000000000000000000000000000005f52604160045260245ffd5b610204826101be565b810181811067ffffffffffffffff82111715610223576102226101ce565b5b80604052505050565b5f6102356101a5565b905061024182826101fb565b919050565b5f67ffffffffffffffff8211156102605761025f6101ce565b5b610269826101be565b9050602081019050919050565b8281835e5f83830152505050565b5f61029661029184610246565b61022c565b9050828152602081018484840111156102b2576102b16101ba565b5b6102bd848285610276565b509392505050565b5f82601f8301126102d9576102d86101b6565b5b81516102e9848260208601610284565b91505092915050565b5f819050919050565b610304816102f2565b811461030e575f5ffd5b50565b5f8151905061031f816102fb565b92915050565b5f73ffffffffffffffffffffffffffffffffffffffff82169050919050565b5f61034e82610325565b9050919050565b61035e81610344565b8114610368575f5ffd5b50565b5f8151905061037981610355565b92915050565b5f5f5f5f5f60a08688031215610398576103976101ae565b5b5f86015167ffffffffffffffff8111156103b5576103b46101b2565b5b6103c1888289016102c5565b955050602086015167ffffffffffffffff8111156103e2576103e16101b2565b5b6103ee888289016102c5565b94505060406103ff88828901610311565b93505060606104108882890161036b565b925050608061042188828901610311565b9150509295509295909350565b5f81519050919050565b7f4e487b71000000000000000000000000000000000000000000000000000000005f52602260045260245ffd5b5f600282049050600182168061047c57607f821691505b60208210810361048f5761048e610438565b5b50919050565b5f819050815f5260205f209050919050565b5f6020601f8301049050919050565b5f82821b905092915050565b5f600883026104f17fffffffffffffffffffffffffffffffffffffffffffffffffffffffffffffffff826104b6565b6104fb86836104b6565b95508019841693508086168417925050509392505050565b5f819050919050565b5f61053661053161052c846102f2565b610513565b6102f2565b9050919050565b5f819050919050565b61054f8361051c565b61056361055b8261053d565b8484546104c2565b825550505050565b5f5f905090565b61057a61056b565b610585818484610546565b505050565b5b818110156105a85761059d5f82610572565b60018101905061058b565b5050565b601f8211156105ed576105be81610495565b6105c7846104a7565b810160208510156105d6578190505b6105ea6105e2856104a7565b83018261058a565b50505b505050565b5f82821c905092915050565b5f61060d5f19846008026105f2565b1980831691505092915050565b5f61062583836105fe565b9150826002028217905092915050565b61063e8261042e565b67ffffffffffffffff811115610657576106566101ce565b5b6106618254610465565b61066c8282856105ac565b5f60209050601f83116001811461069d575f841561068b578287015190505b610695858261061a565b8655506106fc565b601f1984166106ab86610495565b5f5b828110156106d2578489015182556001820191506020850194506020810190506106ad565b868310156106ef57848901516106eb601f8916826105fe565b8355505b6001600288020188555050505b505050505050565b7f4e487b71000000000000000000000000000000000000000000000000000000005f52601160045260245ffd5b5f61073b826102f2565b9150610746836102f2565b925082820190508082111561075e5761075d610704565b5b92915050565b61076d816102f2565b82525050565b5f6020820190506107865f830184610764565b92915050565b6080516113456107a45f395f61070301526113455ff3fe6080604052600436106100c1575f3560e01c806340c10f191161007e57806395d89b411161005857806395d89b41146102675780639dc29fac14610291578063a9059cbb146102b9578063dd62ed3e146102f5576100c1565b806340c10f19146101d957806370a08231146102015780638da5cb5b1461023d576100c1565b806306fdde03146100c5578063095ea7b3146100ef57806318160ddd1461011f57806323b872dd14610149578063251c1aa314610185578063313ce567146101af575b5f5ffd5b3480156100d0575f5ffd5b506100d9610331565b6040516100e69190610d92565b60405180910390f35b61010960048036038101906101049190610e43565b6103bc565b6040516101169190610e9b565b60405180910390f35b34801561012a575f5ffd5b506101336104ba565b6040516101409190610ec3565b60405180910390f35b348015610154575f5ffd5b5061016f600480360381019061016a9190610edc565b6104c0565b60405161017c9190610e9b565b60405180910390f35b348015610190575f5ffd5b506101996106fb565b6040516101a69190610ec3565b60405180910390f35b3480156101ba575f5ffd5b506101c3610701565b6040516101d09190610f47565b60405180910390f35b3480156101e4575f5ffd5b506101ff60048036038101906101fa9190610e43565b610725565b005b34801561020c575f5ffd5b5061022760048036038101906102229190610f60565b610807565b6040516102349190610ec3565b60405180910390f35b348015610248575f5ffd5b5061025161081c565b60405161025e9190610f9a565b60405180910390f35b348015610272575f5ffd5b5061027b610841565b6040516102889190610d92565b60405180910390f35b34801561029c575f5ffd5b506102b760048036038101906102b29190610e43565b6108cd565b005b3480156102c4575f5ffd5b506102df60048036038101906102da9190610e43565b6109af565b6040516102ec9190610e9b565b60405180910390f35b348015610300575f5ffd5b5061031b60048036038101906103169190610fb3565b6109c3565b6040516103289190610ec3565b60405180910390f35b5f805461033d9061101e565b80601f01602080910402602001604051908101604052809291908181526020018280546103699061101e565b80156103b45780601f1061038b576101008083540402835291602001916103b4565b820191905f5260205f20905b81548152906001019060200180831161039757829003601f168201915b505050505081565b5f8160045f3373ffffffffffffffffffffffffffffffffffffffff1673ffffffffffffffffffffffffffffffffffffffff1681526020019081526020015f205f8573ffffffffffffffffffffffffffffffffffffffff1673ffffffffffffffffffffffffffffffffffffffff1681526020019081526020015f205f828254610444919061107b565b925050819055508273ffffffffffffffffffffffffffffffffffffffff163373ffffffffffffffffffffffffffffffffffffffff167f8c5be1e5ebec7d5bd14f71427d1e84f3dd0314c0f7b2291e5b200ac8c7c3b925846040516104a89190610ec3565b60405180910390a36001905092915050565b60025481565b5f8160045f8673ffffffffffffffffffffffffffffffffffffffff1673ffffffffffffffffffffffffffffffffffffffff1681526020019081526020015f205f3373ffffffffffffffffffffffffffffffffffffffff1673ffffffffffffffffffffffffffffffffffffffff1681526020019081526020015f2054101561057c576040517f08c379a0000000000000000000000000000000000000000000000000000000008152600401610573906110f8565b60405180910390fd5b8160045f8673ffffffffffffffffffffffffffffffffffffffff1673ffffffffffffffffffffffffffffffffffffffff1681526020019081526020015f205f3373ffffffffffffffffffffffffffffffffffffffff1673ffffffffffffffffffffffffffffffffffffffff1681526020019081526020015f205f8282546106039190611116565b925050819055503373ffffffffffffffffffffffffffffffffffffffff168473ffffffffffffffffffffffffffffffffffffffff167f8c5be1e5ebec7d5bd14f71427d1e84f3dd0314c0f7b2291e5b200ac8c7c3b92560045f8873ffffffffffffffffffffffffffffffffffffffff1673ffffffffffffffffffffffffffffffffffffffff1681526020019081526020015f205f3373ffffffffffffffffffffffffffffffffffffffff1673ffffffffffffffffffffffffffffffffffffffff1681526020019081526020015f20546040516106df9190610ec3565b60405180910390a36106f28484846109e3565b90509392505050565b60065481565b7f000000000000000000000000000000000000000000000000000000000000000081565b60065442101561076a576040517f08c379a000000000000000000000000000000000000000000000000000000000815260040161076190611193565b60405180910390fd5b60055f9054906101000a900473ffffffffffffffffffffffffffffffffffffffff1673ffffffffffffffffffffffffffffffffffffffff163373ffffffffffffffffffffffffffffffffffffffff16146107f9576040517f08c379a00000000000000000000000000000000000000000000000000000000081526004016107f0906111fb565b60405180910390fd5b6108038282610b7a565b5050565b6003602052805f5260405f205f915090505481565b60055f9054906101000a900473ffffffffffffffffffffffffffffffffffffffff1681565b6001805461084e9061101e565b80601f016020809104026020016040519081016040528092919081815260200182805461087a9061101e565b80156108c55780601f1061089c576101008083540402835291602001916108c5565b820191905f5260205f20905b8154815290600101906020018083116108a857829003601f168201915b505050505081565b600654421015610912576040517f08c379a000000000000000000000000000000000000000000000000000000000815260040161090990611193565b60405180910390fd5b60055f9054906101000a900473ffffffffffffffffffffffffffffffffffffffff1673ffffffffffffffffffffffffffffffffffffffff163373ffffffffffffffffffffffffffffffffffffffff16146109a1576040517f08c379a000000000000000000000000000000000000000000000000000000000815260040161099890611263565b60405180910390fd5b6109ab8282610c4e565b5050565b5f6109bb3384846109e3565b905092915050565b6004602052815f5260405f20602052805f5260405f205f91509150505481565b5f8160035f8673ffffffffffffffffffffffffffffffffffffffff1673ffffffffffffffffffffffffffffffffffffffff1681526020019081526020015f20541015610a64576040517f08c379a0000000000000000000000000000000000000000000000000000000008152600401610a5b906112f1565b60405180910390fd5b8273ffffffffffffffffffffffffffffffffffffffff168473ffffffffffffffffffffffffffffffffffffffff167fddf252ad1be2c89b69c2b068fc378daa952ba7f163c4a11628f55a4df523b3ef84604051610ac19190610ec3565b60405180910390a38160035f8673ffffffffffffffffffffffffffffffffffffffff1673ffffffffffffffffffffffffffffffffffffffff1681526020019081526020015f205f828254610b159190611116565b925050819055508160035f8573ffffffffffffffffffffffffffffffffffffffff1673ffffffffffffffffffffffffffffffffffffffff1681526020019081526020015f205f828254610b68919061107b565b92505081905550600190509392505050565b8060035f8473ffffffffffffffffffffffffffffffffffffffff1673ffffffffffffffffffffffffffffffffffffffff1681526020019081526020015f205f828254610bc6919061107b565b925050819055508060025f828254610bde919061107b565b925050819055508173ffffffffffffffffffffffffffffffffffffffff165f73ffffffffffffffffffffffffffffffffffffffff167fddf252ad1be2c89b69c2b068fc378daa952ba7f163c4a11628f55a4df523b3ef83604051610c429190610ec3565b60405180910390a35050565b8060035f8473ffffffffffffffffffffffffffffffffffffffff1673ffffffffffffffffffffffffffffffffffffffff1681526020019081526020015f205f828254610c9a9190611116565b925050819055508060025f828254610cb29190611116565b925050819055505f73ffffffffffffffffffffffffffffffffffffffff168273ffffffffffffffffffffffffffffffffffffffff167fddf252ad1be2c89b69c2b068fc378daa952ba7f163c4a11628f55a4df523b3ef83604051610d169190610ec3565b60405180910390a35050565b5f81519050919050565b5f82825260208201905092915050565b8281835e5f83830152505050565b5f601f19601f8301169050919050565b5f610d6482610d22565b610d6e8185610d2c565b9350610d7e818560208601610d3c565b610d8781610d4a565b840191505092915050565b5f6020820190508181035f830152610daa8184610d5a565b905092915050565b5f5ffd5b5f73ffffffffffffffffffffffffffffffffffffffff82169050919050565b5f610ddf82610db6565b9050919050565b610def81610dd5565b8114610df9575f5ffd5b50565b5f81359050610e0a81610de6565b92915050565b5f819050919050565b610e2281610e10565b8114610e2c575f5ffd5b50565b5f81359050610e3d81610e19565b92915050565b5f5f60408385031215610e5957610e58610db2565b5b5f610e6685828601610dfc565b9250506020610e7785828601610e2f565b9150509250929050565b5f8115159050919050565b610e9581610e81565b82525050565b5f602082019050610eae5f830184610e8c565b92915050565b610ebd81610e10565b82525050565b5f602082019050610ed65f830184610eb4565b92915050565b5f5f5f60608486031215610ef357610ef2610db2565b5b5f610f0086828701610dfc565b9350506020610f1186828701610dfc565b9250506040610f2286828701610e2f565b9150509250925092565b5f60ff82169050919050565b610f4181610f2c565b82525050565b5f602082019050610f5a5f830184610f38565b92915050565b5f60208284031215610f7557610f74610db2565b5b5f610f8284828501610dfc565b91505092915050565b610f9481610dd5565b82525050565b5f602082019050610fad5f830184610f8b565b92915050565b5f5f60408385031215610fc957610fc8610db2565b5b5f610fd685828601610dfc565b9250506020610fe785828601610dfc565b9150509250929050565b7f4e487b71000000000000000000000000000000000000000000000000000000005f52602260045260245ffd5b5f600282049050600182168061103557607f821691505b60208210810361104857611047610ff1565b5b50919050565b7f4e487b71000000000000000000000000000000000000000000000000000000005f52601160045260245ffd5b5f61108582610e10565b915061109083610e10565b92508282019050808211156110a8576110a761104e565b5b92915050565b7f45524332303a20496e73756666696369656e7420616c6c6f77616e63650000005f82015250565b5f6110e2601d83610d2c565b91506110ed826110ae565b602082019050919050565b5f6020820190508181035f83015261110f816110d6565b9050919050565b5f61112082610e10565b915061112b83610e10565b92508282039050818111156111435761114261104e565b5b92915050565b7f4450433a205374696c6c206c6f636b65640000000000000000000000000000005f82015250565b5f61117d601183610d2c565b915061118882611149565b602082019050919050565b5f6020820190508181035f8301526111aa81611171565b9050919050565b7f4450433a204f6e6c79206f776e65722063616e206d696e7400000000000000005f82015250565b5f6111e5601883610d2c565b91506111f0826111b1565b602082019050919050565b5f6020820190508181035f830152611212816111d9565b9050919050565b7f4450433a204f6e6c79206f776e65722063616e206275726e00000000000000005f82015250565b5f61124d601883610d2c565b915061125882611219565b602082019050919050565b5f6020820190508181035f83015261127a81611241565b9050919050565b7f45524332303a20496e73756666696369656e742073656e6465722062616c616e5f8201527f6365000000000000000000000000000000000000000000000000000000000000602082015250565b5f6112db602283610d2c565b91506112e682611281565b604082019050919050565b5f6020820190508181035f830152611308816112cf565b905091905056fea264697066735822122024463061fb81dd9d372725ea96eaa405d6c0e674872f901e256f91f0776918e164736f6c634300081c0033a264697066735822122084b30aebdabfe8fc11bc6b37f363bcac8201002b8c086e44ce25a0b31c38928f64736f6c634300081c0033","linkReferences":{}},"methodIdentifiers":{"allowance(address,address)":"dd62ed3e","approve(address,uint256)":"095ea7b3","balanceOf(address)":"70a08231","burn(uint256)":"42966c68","decimals()":"313ce567","depositCollateralBuffer()":"37707fb8","depositorCoin()":"78e037ba","depositorCoinLockTime()":"9ed74418","feeRatePercentage()":"cf1137ff","initialCollateralRatioPercentage()":"83a2838c","mint()":"1249c58b","name()":"06fdde03","oracle()":"7dc0d1d0","symbol()":"95d89b41","totalSupply()":"18160ddd","transfer(address,uint256)":"a9059cbb","transferFrom(address,address,uint256)":"23b872dd","withdrawCollateralBuffer(uint256)":"c6fbba3f"},"id":4}