{"abi":[{"type":"constructor","inputs":[],"stateMutability":"nonpayable"},{"type":"function","name":"getPrice","inputs":[],"outputs":[{"name":"","type":"uint256","internalType":"uint256"}],"stateMutability":"view"},{"type":"function","name":"owner","inputs":[],"outputs":[{"name":"","type":"address","internalType":"address"}],"stateMutability":"view"},{"type":"function","name":"setPrice","inputs":[{"name":"newPrice","type":"uint256","internalType":"uint256"}],"outputs":[],"stateMutability":"nonpayable"}],"bytecode":{"object":"0x6080604052348015600e575f5ffd5b503360015f6101000a81548173ffffffffffffffffffffffffffffffffffffffff021916908373ffffffffffffffffffffffffffffffffffffffff1602179055506102f08061005c5f395ff3fe608060405234801561000f575f5ffd5b506004361061003f575f3560e01c80638da5cb5b1461004357806391b7f5ed1461006157806398d5fdca1461007d575b5f5ffd5b61004b61009b565b604051610058919061019f565b60405180910390f35b61007b600480360381019061007691906101ef565b6100c0565b005b610085610158565b6040516100929190610229565b60405180910390f35b60015f9054906101000a900473ffffffffffffffffffffffffffffffffffffffff1681565b60015f9054906101000a900473ffffffffffffffffffffffffffffffffffffffff1673ffffffffffffffffffffffffffffffffffffffff163373ffffffffffffffffffffffffffffffffffffffff161461014f576040517f08c379a00000000000000000000000000000000000000000000000000000000081526004016101469061029c565b60405180910390fd5b805f8190555050565b5f5f54905090565b5f73ffffffffffffffffffffffffffffffffffffffff82169050919050565b5f61018982610160565b9050919050565b6101998161017f565b82525050565b5f6020820190506101b25f830184610190565b92915050565b5f5ffd5b5f819050919050565b6101ce816101bc565b81146101d8575f5ffd5b50565b5f813590506101e9816101c5565b92915050565b5f60208284031215610204576102036101b8565b5b5f610211848285016101db565b91505092915050565b610223816101bc565b82525050565b5f60208201905061023c5f83018461021a565b92915050565b5f82825260208201905092915050565b7f4f7261636c653a206f6e6c79206f776e65722063616e207365742070726963655f82015250565b5f610286602083610242565b915061029182610252565b602082019050919050565b5f6020820190508181035f8301526102b38161027a565b905091905056fea26469706673582212208f30a7c4ba119fc9e4a8d0528816c0df28d6731a100839fd31c080b0465542b264736f6c634300081c0033","linkReferences":{}},"methodIdentifiers":{"getPrice()":"98d5fdca","owner()":"8da5cb5b","setPrice(uint256)":"91b7f5ed"},"id":3}